{
  "_format": "hh-sol-artifact-1",
  "contractName": "MyEpicNFT",
  "sourceName": "ethereum/contracts/MyEpicNFT.sol",
  "abi": [
    {
      "inputs": [],
      "stateMutability": "nonpayable",
      "type": "constructor"
    },
    {
      "anonymous": false,
      "inputs": [
        {
          "indexed": true,
          "internalType": "address",
          "name": "owner",
          "type": "address"
        },
        {
          "indexed": true,
          "internalType": "address",
          "name": "approved",
          "type": "address"
        },
        {
          "indexed": true,
          "internalType": "uint256",
          "name": "tokenId",
          "type": "uint256"
        }
      ],
      "name": "Approval",
      "type": "event"
    },
    {
      "anonymous": false,
      "inputs": [
        {
          "indexed": true,
          "internalType": "address",
          "name": "owner",
          "type": "address"
        },
        {
          "indexed": true,
          "internalType": "address",
          "name": "operator",
          "type": "address"
        },
        {
          "indexed": false,
          "internalType": "bool",
          "name": "approved",
          "type": "bool"
        }
      ],
      "name": "ApprovalForAll",
      "type": "event"
    },
    {
      "anonymous": false,
      "inputs": [
        {
          "indexed": false,
          "internalType": "address",
          "name": "sender",
          "type": "address"
        },
        {
          "indexed": false,
          "internalType": "uint256",
          "name": "tokenId",
          "type": "uint256"
        }
      ],
      "name": "NewEpicNFTMinted",
      "type": "event"
    },
    {
      "anonymous": false,
      "inputs": [
        {
          "indexed": true,
          "internalType": "address",
          "name": "from",
          "type": "address"
        },
        {
          "indexed": true,
          "internalType": "address",
          "name": "to",
          "type": "address"
        },
        {
          "indexed": true,
          "internalType": "uint256",
          "name": "tokenId",
          "type": "uint256"
        }
      ],
      "name": "Transfer",
      "type": "event"
    },
    {
      "inputs": [
        {
          "internalType": "address",
          "name": "to",
          "type": "address"
        },
        {
          "internalType": "uint256",
          "name": "tokenId",
          "type": "uint256"
        }
      ],
      "name": "approve",
      "outputs": [],
      "stateMutability": "nonpayable",
      "type": "function"
    },
    {
      "inputs": [
        {
          "internalType": "address",
          "name": "owner",
          "type": "address"
        }
      ],
      "name": "balanceOf",
      "outputs": [
        {
          "internalType": "uint256",
          "name": "",
          "type": "uint256"
        }
      ],
      "stateMutability": "view",
      "type": "function"
    },
    {
      "inputs": [
        {
          "internalType": "uint256",
          "name": "tokenId",
          "type": "uint256"
        }
      ],
      "name": "getApproved",
      "outputs": [
        {
          "internalType": "address",
          "name": "",
          "type": "address"
        }
      ],
      "stateMutability": "view",
      "type": "function"
    },
    {
      "inputs": [],
      "name": "getTotalNFTsMintedSoFar",
      "outputs": [
        {
          "internalType": "uint256",
          "name": "",
          "type": "uint256"
        }
      ],
      "stateMutability": "view",
      "type": "function"
    },
    {
      "inputs": [
        {
          "internalType": "address",
          "name": "owner",
          "type": "address"
        },
        {
          "internalType": "address",
          "name": "operator",
          "type": "address"
        }
      ],
      "name": "isApprovedForAll",
      "outputs": [
        {
          "internalType": "bool",
          "name": "",
          "type": "bool"
        }
      ],
      "stateMutability": "view",
      "type": "function"
    },
    {
      "inputs": [],
      "name": "makeAnEpicNFT",
      "outputs": [],
      "stateMutability": "nonpayable",
      "type": "function"
    },
    {
      "inputs": [],
      "name": "name",
      "outputs": [
        {
          "internalType": "string",
          "name": "",
          "type": "string"
        }
      ],
      "stateMutability": "view",
      "type": "function"
    },
    {
      "inputs": [
        {
          "internalType": "uint256",
          "name": "tokenId",
          "type": "uint256"
        }
      ],
      "name": "ownerOf",
      "outputs": [
        {
          "internalType": "address",
          "name": "",
          "type": "address"
        }
      ],
      "stateMutability": "view",
      "type": "function"
    },
    {
      "inputs": [
        {
          "internalType": "uint256",
          "name": "tokenId",
          "type": "uint256"
        }
      ],
      "name": "pickRandomColor",
      "outputs": [
        {
          "internalType": "string",
          "name": "",
          "type": "string"
        }
      ],
      "stateMutability": "view",
      "type": "function"
    },
    {
      "inputs": [
        {
          "internalType": "uint256",
          "name": "tokenId",
          "type": "uint256"
        }
      ],
      "name": "pickRandomFirstWord",
      "outputs": [
        {
          "internalType": "string",
          "name": "",
          "type": "string"
        }
      ],
      "stateMutability": "view",
      "type": "function"
    },
    {
      "inputs": [
        {
          "internalType": "uint256",
          "name": "tokenId",
          "type": "uint256"
        }
      ],
      "name": "pickRandomSecondWord",
      "outputs": [
        {
          "internalType": "string",
          "name": "",
          "type": "string"
        }
      ],
      "stateMutability": "view",
      "type": "function"
    },
    {
      "inputs": [
        {
          "internalType": "uint256",
          "name": "tokenId",
          "type": "uint256"
        }
      ],
      "name": "pickRandomThirdWord",
      "outputs": [
        {
          "internalType": "string",
          "name": "",
          "type": "string"
        }
      ],
      "stateMutability": "view",
      "type": "function"
    },
    {
      "inputs": [
        {
          "internalType": "address",
          "name": "from",
          "type": "address"
        },
        {
          "internalType": "address",
          "name": "to",
          "type": "address"
        },
        {
          "internalType": "uint256",
          "name": "tokenId",
          "type": "uint256"
        }
      ],
      "name": "safeTransferFrom",
      "outputs": [],
      "stateMutability": "nonpayable",
      "type": "function"
    },
    {
      "inputs": [
        {
          "internalType": "address",
          "name": "from",
          "type": "address"
        },
        {
          "internalType": "address",
          "name": "to",
          "type": "address"
        },
        {
          "internalType": "uint256",
          "name": "tokenId",
          "type": "uint256"
        },
        {
          "internalType": "bytes",
          "name": "_data",
          "type": "bytes"
        }
      ],
      "name": "safeTransferFrom",
      "outputs": [],
      "stateMutability": "nonpayable",
      "type": "function"
    },
    {
      "inputs": [
        {
          "internalType": "address",
          "name": "operator",
          "type": "address"
        },
        {
          "internalType": "bool",
          "name": "approved",
          "type": "bool"
        }
      ],
      "name": "setApprovalForAll",
      "outputs": [],
      "stateMutability": "nonpayable",
      "type": "function"
    },
    {
      "inputs": [
        {
          "internalType": "bytes4",
          "name": "interfaceId",
          "type": "bytes4"
        }
      ],
      "name": "supportsInterface",
      "outputs": [
        {
          "internalType": "bool",
          "name": "",
          "type": "bool"
        }
      ],
      "stateMutability": "view",
      "type": "function"
    },
    {
      "inputs": [],
      "name": "symbol",
      "outputs": [
        {
          "internalType": "string",
          "name": "",
          "type": "string"
        }
      ],
      "stateMutability": "view",
      "type": "function"
    },
    {
      "inputs": [
        {
          "internalType": "uint256",
          "name": "tokenId",
          "type": "uint256"
        }
      ],
      "name": "tokenURI",
      "outputs": [
        {
          "internalType": "string",
          "name": "",
          "type": "string"
        }
      ],
      "stateMutability": "view",
      "type": "function"
    },
    {
      "inputs": [
        {
          "internalType": "address",
          "name": "from",
          "type": "address"
        },
        {
          "internalType": "address",
          "name": "to",
          "type": "address"
        },
        {
          "internalType": "uint256",
          "name": "tokenId",
          "type": "uint256"
        }
      ],
      "name": "transferFrom",
      "outputs": [],
      "stateMutability": "nonpayable",
      "type": "function"
    }
  ],
  "bytecode": "0x6080604052603260085560405180610100016040528060d3815260200162004b9860d39139600990805190602001906200003b92919062000af8565b5060405180608001604052806056815260200162004c6b60569139600a90805190602001906200006d92919062000af8565b506040518061016001604052806040518060400160405280600581526020017f416e67727900000000000000000000000000000000000000000000000000000081525081526020016040518060400160405280600781526020017f456e76696f75730000000000000000000000000000000000000000000000000081525081526020016040518060400160405280600981526020017f446973677573746564000000000000000000000000000000000000000000000081525081526020016040518060400160405280600981526020017f486f72726966696564000000000000000000000000000000000000000000000081525081526020016040518060400160405280600781526020017f4e6572766f75730000000000000000000000000000000000000000000000000081525081526020016040518060400160405280600881526020017f436865657266756c00000000000000000000000000000000000000000000000081525081526020016040518060400160405280600781526020017f436f6e74656e740000000000000000000000000000000000000000000000000081525081526020016040518060400160405280600a81526020017f4f7074696d69737469630000000000000000000000000000000000000000000081525081526020016040518060400160405280600381526020017f536164000000000000000000000000000000000000000000000000000000000081525081526020016040518060400160405280600c81526020017f4469736170706f696e746564000000000000000000000000000000000000000081525081526020016040518060400160405280600981526020017f5375727072697365640000000000000000000000000000000000000000000000815250815250600b90600b6200031392919062000b89565b506040518061014001604052806040518060400160405280600781526020017f416e63686f76790000000000000000000000000000000000000000000000000081525081526020016040518060400160405280600481526020017f426173730000000000000000000000000000000000000000000000000000000081525081526020016040518060400160405280600581526020017f536861726b00000000000000000000000000000000000000000000000000000081525081526020016040518060400160405280600381526020017f436f64000000000000000000000000000000000000000000000000000000000081525081526020016040518060400160405280600381526020017f4b6f69000000000000000000000000000000000000000000000000000000000081525081526020016040518060400160405280600681526020017f53616c6d6f6e000000000000000000000000000000000000000000000000000081525081526020016040518060400160405280600781526020017f416e63686f76790000000000000000000000000000000000000000000000000081525081526020016040518060400160405280600781526020017f486164646f636b0000000000000000000000000000000000000000000000000081525081526020016040518060400160405280600581526020017f537175696400000000000000000000000000000000000000000000000000000081525081526020016040518060400160405280600781526020017f4f63746f70757300000000000000000000000000000000000000000000000000815250815250600c90600a6200057e92919062000bf0565b506040518061014001604052806040518060400160405280600381526020017f426179000000000000000000000000000000000000000000000000000000000081525081526020016040518060400160405280600581526020017f426561636800000000000000000000000000000000000000000000000000000081525081526020016040518060400160405280600481526020017f436170650000000000000000000000000000000000000000000000000000000081525081526020016040518060400160405280600481526020017f446f636b0000000000000000000000000000000000000000000000000000000081525081526020016040518060400160405280600481526020017f436f76650000000000000000000000000000000000000000000000000000000081525081526020016040518060400160405280600581526020017f436f72616c00000000000000000000000000000000000000000000000000000081525081526020016040518060400160405280600881526020017f556d6272656c6c6100000000000000000000000000000000000000000000000081525081526020016040518060400160405280600481526020017f42616c6c0000000000000000000000000000000000000000000000000000000081525081526020016040518060400160405280600881526020017f5377696d7375697400000000000000000000000000000000000000000000000081525081526020016040518060400160405280600581526020017f546f77656c000000000000000000000000000000000000000000000000000000815250815250600d90600a620007e992919062000bf0565b506040518060a001604052806040518060400160405280600781526020017f233135353636360000000000000000000000000000000000000000000000000081525081526020016040518060400160405280600781526020017f233737443345410000000000000000000000000000000000000000000000000081525081526020016040518060400160405280600781526020017f233330433145360000000000000000000000000000000000000000000000000081525081526020016040518060400160405280600781526020017f233534363636420000000000000000000000000000000000000000000000000081525081526020016040518060400160405280600781526020017f2332363937423300000000000000000000000000000000000000000000000000815250815250600e9060056200092c92919062000c57565b503480156200093a57600080fd5b506040518060400160405280600981526020017f5371756172654e465400000000000000000000000000000000000000000000008152506040518060400160405280600681526020017f53515541524500000000000000000000000000000000000000000000000000008152508160009080519060200190620009bf92919062000af8565b508060019080519060200190620009d892919062000af8565b50505062000a266040518060400160405280601e81526020017f54686973206973206d79204e465420636f6e74726163742e2057686f6121000081525062000a2c60201b6200130e1760201c565b62000e78565b62000acc8160405160240162000a43919062000d8c565b6040516020818303038152906040527f41304fac000000000000000000000000000000000000000000000000000000007bffffffffffffffffffffffffffffffffffffffffffffffffffffffff19166020820180517bffffffffffffffffffffffffffffffffffffffffffffffffffffffff838183161783525050505062000acf60201b60201c565b50565b60008151905060006a636f6e736f6c652e6c6f679050602083016000808483855afa5050505050565b82805462000b069062000e02565b90600052602060002090601f01602090048101928262000b2a576000855562000b76565b82601f1062000b4557805160ff191683800117855562000b76565b8280016001018555821562000b76579182015b8281111562000b7557825182559160200191906001019062000b58565b5b50905062000b85919062000cbe565b5090565b82805482825590600052602060002090810192821562000bdd579160200282015b8281111562000bdc57825182908051906020019062000bcb92919062000af8565b509160200191906001019062000baa565b5b50905062000bec919062000cdd565b5090565b82805482825590600052602060002090810192821562000c44579160200282015b8281111562000c4357825182908051906020019062000c3292919062000af8565b509160200191906001019062000c11565b5b50905062000c53919062000cdd565b5090565b82805482825590600052602060002090810192821562000cab579160200282015b8281111562000caa57825182908051906020019062000c9992919062000af8565b509160200191906001019062000c78565b5b50905062000cba919062000cdd565b5090565b5b8082111562000cd957600081600090555060010162000cbf565b5090565b5b8082111562000d01576000818162000cf7919062000d05565b5060010162000cde565b5090565b50805462000d139062000e02565b6000825580601f1062000d27575062000d48565b601f01602090049060005260206000209081019062000d47919062000cbe565b5b50565b600062000d588262000db0565b62000d64818562000dbb565b935062000d7681856020860162000dcc565b62000d818162000e67565b840191505092915050565b6000602082019050818103600083015262000da8818462000d4b565b905092915050565b600081519050919050565b600082825260208201905092915050565b60005b8381101562000dec57808201518184015260208101905062000dcf565b8381111562000dfc576000848401525b50505050565b6000600282049050600182168062000e1b57607f821691505b6020821081141562000e325762000e3162000e38565b5b50919050565b7f4e487b7100000000000000000000000000000000000000000000000000000000600052602260045260246000fd5b6000601f19601f8301169050919050565b613d108062000e886000396000f3fe608060405234801561001057600080fd5b50600436106101215760003560e01c80636352211e116100ad578063b88d4fde11610071578063b88d4fde14610340578063c575757a1461035c578063c87b56dd1461038c578063de9d132f146103bc578063e985e9c5146103c657610121565b80636352211e1461027657806370a08231146102a657806395d89b41146102d6578063a22cb465146102f4578063b187301f1461031057610121565b8063095ea7b3116100f4578063095ea7b3146101c257806323b872dd146101de5780632de38d68146101fa57806342842e0e1461022a578063514dc8c61461024657610121565b806301ffc9a714610126578063060475901461015657806306fdde0314610174578063081812fc14610192575b600080fd5b610140600480360381019061013b91906127aa565b6103f6565b60405161014d9190613536565b60405180910390f35b61015e6104d8565b60405161016b9190613801565b60405180910390f35b61017c6104e9565b6040516101899190613551565b60405180910390f35b6101ac60048036038101906101a791906127fc565b61057b565b6040516101b991906134a6565b60405180910390f35b6101dc60048036038101906101d7919061276e565b610600565b005b6101f860048036038101906101f39190612668565b610718565b005b610214600480360381019061020f91906127fc565b610778565b6040516102219190613551565b60405180910390f35b610244600480360381019061023f9190612668565b610896565b005b610260600480360381019061025b91906127fc565b6108b6565b60405161026d9190613551565b60405180910390f35b610290600480360381019061028b91906127fc565b6109d4565b60405161029d91906134a6565b60405180910390f35b6102c060048036038101906102bb9190612603565b610a86565b6040516102cd9190613801565b60405180910390f35b6102de610b3e565b6040516102eb9190613551565b60405180910390f35b61030e60048036038101906103099190612732565b610bd0565b005b61032a600480360381019061032591906127fc565b610be6565b6040516103379190613551565b60405180910390f35b61035a600480360381019061035591906126b7565b610d04565b005b610376600480360381019061037191906127fc565b610d66565b6040516103839190613551565b60405180910390f35b6103a660048036038101906103a191906127fc565b610e84565b6040516103b39190613551565b60405180910390f35b6103c4610fd6565b005b6103e060048036038101906103db919061262c565b61127a565b6040516103ed9190613536565b60405180910390f35b60007f80ac58cd000000000000000000000000000000000000000000000000000000007bffffffffffffffffffffffffffffffffffffffffffffffffffffffff1916827bffffffffffffffffffffffffffffffffffffffffffffffffffffffff191614806104c157507f5b5e139f000000000000000000000000000000000000000000000000000000007bffffffffffffffffffffffffffffffffffffffffffffffffffffffff1916827bffffffffffffffffffffffffffffffffffffffffffffffffffffffff1916145b806104d157506104d0826113a7565b5b9050919050565b60006104e46007611411565b905090565b6060600080546104f890613aa0565b80601f016020809104026020016040519081016040528092919081815260200182805461052490613aa0565b80156105715780601f1061054657610100808354040283529160200191610571565b820191906000526020600020905b81548152906001019060200180831161055457829003601f168201915b5050505050905090565b60006105868261141f565b6105c5576040517f08c379a00000000000000000000000000000000000000000000000000000000081526004016105bc90613761565b60405180910390fd5b6004600083815260200190815260200160002060009054906101000a900473ffffffffffffffffffffffffffffffffffffffff169050919050565b600061060b826109d4565b90508073ffffffffffffffffffffffffffffffffffffffff168373ffffffffffffffffffffffffffffffffffffffff16141561067c576040517f08c379a0000000000000000000000000000000000000000000000000000000008152600401610673906137c1565b60405180910390fd5b8073ffffffffffffffffffffffffffffffffffffffff1661069b61148b565b73ffffffffffffffffffffffffffffffffffffffff1614806106ca57506106c9816106c461148b565b61127a565b5b610709576040517f08c379a0000000000000000000000000000000000000000000000000000000008152600401610700906136a1565b60405180910390fd5b6107138383611493565b505050565b61072961072361148b565b8261154c565b610768576040517f08c379a000000000000000000000000000000000000000000000000000000000815260040161075f906137e1565b60405180910390fd5b61077383838361162a565b505050565b606060006107ac61078884611886565b6040516020016107989190613440565b604051602081830303815290604052611a33565b9050600b80549050816107bf9190613b1b565b9050600b81815481106107fb577f4e487b7100000000000000000000000000000000000000000000000000000000600052603260045260246000fd5b90600052602060002001805461081090613aa0565b80601f016020809104026020016040519081016040528092919081815260200182805461083c90613aa0565b80156108895780601f1061085e57610100808354040283529160200191610889565b820191906000526020600020905b81548152906001019060200180831161086c57829003601f168201915b5050505050915050919050565b6108b183838360405180602001604052806000815250610d04565b505050565b606060006108ea6108c684611886565b6040516020016108d69190613484565b604051602081830303815290604052611a33565b9050600e80549050816108fd9190613b1b565b9050600e8181548110610939577f4e487b7100000000000000000000000000000000000000000000000000000000600052603260045260246000fd5b90600052602060002001805461094e90613aa0565b80601f016020809104026020016040519081016040528092919081815260200182805461097a90613aa0565b80156109c75780601f1061099c576101008083540402835291602001916109c7565b820191906000526020600020905b8154815290600101906020018083116109aa57829003601f168201915b5050505050915050919050565b6000806002600084815260200190815260200160002060009054906101000a900473ffffffffffffffffffffffffffffffffffffffff169050600073ffffffffffffffffffffffffffffffffffffffff168173ffffffffffffffffffffffffffffffffffffffff161415610a7d576040517f08c379a0000000000000000000000000000000000000000000000000000000008152600401610a74906136e1565b60405180910390fd5b80915050919050565b60008073ffffffffffffffffffffffffffffffffffffffff168273ffffffffffffffffffffffffffffffffffffffff161415610af7576040517f08c379a0000000000000000000000000000000000000000000000000000000008152600401610aee906136c1565b60405180910390fd5b600360008373ffffffffffffffffffffffffffffffffffffffff1673ffffffffffffffffffffffffffffffffffffffff168152602001908152602001600020549050919050565b606060018054610b4d90613aa0565b80601f0160208091040260200160405190810160405280929190818152602001828054610b7990613aa0565b8015610bc65780601f10610b9b57610100808354040283529160200191610bc6565b820191906000526020600020905b815481529060010190602001808311610ba957829003601f168201915b5050505050905090565b610be2610bdb61148b565b8383611a66565b5050565b60606000610c1a610bf684611886565b604051602001610c0691906133d9565b604051602081830303815290604052611a33565b9050600c8054905081610c2d9190613b1b565b9050600c8181548110610c69577f4e487b7100000000000000000000000000000000000000000000000000000000600052603260045260246000fd5b906000526020600020018054610c7e90613aa0565b80601f0160208091040260200160405190810160405280929190818152602001828054610caa90613aa0565b8015610cf75780601f10610ccc57610100808354040283529160200191610cf7565b820191906000526020600020905b815481529060010190602001808311610cda57829003601f168201915b5050505050915050919050565b610d15610d0f61148b565b8361154c565b610d54576040517f08c379a0000000000000000000000000000000000000000000000000000000008152600401610d4b906137e1565b60405180910390fd5b610d6084848484611bd3565b50505050565b60606000610d9a610d7684611886565b604051602001610d8691906133b7565b604051602081830303815290604052611a33565b9050600d8054905081610dad9190613b1b565b9050600d8181548110610de9577f4e487b7100000000000000000000000000000000000000000000000000000000600052603260045260246000fd5b906000526020600020018054610dfe90613aa0565b80601f0160208091040260200160405190810160405280929190818152602001828054610e2a90613aa0565b8015610e775780601f10610e4c57610100808354040283529160200191610e77565b820191906000526020600020905b815481529060010190602001808311610e5a57829003601f168201915b5050505050915050919050565b6060610e8f8261141f565b610ece576040517f08c379a0000000000000000000000000000000000000000000000000000000008152600401610ec590613741565b60405180910390fd5b6000600660008481526020019081526020016000208054610eee90613aa0565b80601f0160208091040260200160405190810160405280929190818152602001828054610f1a90613aa0565b8015610f675780601f10610f3c57610100808354040283529160200191610f67565b820191906000526020600020905b815481529060010190602001808311610f4a57829003601f168201915b505050505090506000610f78611c2f565b9050600081511415610f8e578192505050610fd1565b600082511115610fc3578082604051602001610fab9291906132f7565b60405160208183030381529060405292505050610fd1565b610fcc84611c46565b925050505b919050565b6000610fe26007611411565b905060328110611027576040517f08c379a000000000000000000000000000000000000000000000000000000000815260040161101e90613681565b60405180910390fd5b600061103282610778565b9050600061103f83610be6565b9050600061104c84610d66565b905060008383836040516020016110659392919061331b565b60405160208183030381529060405290506000611081866108b6565b90506000600982600a8560405160200161109e949392919061334c565b604051602081830303815290604052905060006110e3846110be84611ced565b6040516020016110cf9291906133fb565b604051602081830303815290604052611ced565b90506000816040516020016110f89190613462565b60405160208183030381529060405290506111476040518060400160405280601581526020017f0a2d2d2d2d2d2d2d2d2d2d2d2d2d2d2d2d2d2d2d2d000000000000000000000081525061130e565b61116f8160405160200161115b9190613395565b60405160208183030381529060405261130e565b6111ad6040518060400160405280601581526020017f2d2d2d2d2d2d2d2d2d2d2d2d2d2d2d2d2d2d2d2d0a000000000000000000000081525061130e565b6111b7338a611eab565b6111c18982611ec9565b6111cb6007611f3d565b6111ee604051806060016040528060258152602001613c76602591398a33611f53565b6112366040518060400160405280600f81526020017f4e756d626572206d696e7465643a2000000000000000000000000000000000008152506112316007611411565b611ff2565b7febb98688741ffa4c7589bf325de30cf7becb63de567842e1ccdb6cb949fdc82c338a60405161126792919061350d565b60405180910390a1505050505050505050565b6000600560008473ffffffffffffffffffffffffffffffffffffffff1673ffffffffffffffffffffffffffffffffffffffff16815260200190815260200160002060008373ffffffffffffffffffffffffffffffffffffffff1673ffffffffffffffffffffffffffffffffffffffff16815260200190815260200160002060009054906101000a900460ff16905092915050565b6113a4816040516024016113229190613551565b6040516020818303038152906040527f41304fac000000000000000000000000000000000000000000000000000000007bffffffffffffffffffffffffffffffffffffffffffffffffffffffff19166020820180517bffffffffffffffffffffffffffffffffffffffffffffffffffffffff838183161783525050505061208e565b50565b60007f01ffc9a7000000000000000000000000000000000000000000000000000000007bffffffffffffffffffffffffffffffffffffffffffffffffffffffff1916827bffffffffffffffffffffffffffffffffffffffffffffffffffffffff1916149050919050565b600081600001549050919050565b60008073ffffffffffffffffffffffffffffffffffffffff166002600084815260200190815260200160002060009054906101000a900473ffffffffffffffffffffffffffffffffffffffff1673ffffffffffffffffffffffffffffffffffffffff1614159050919050565b600033905090565b816004600083815260200190815260200160002060006101000a81548173ffffffffffffffffffffffffffffffffffffffff021916908373ffffffffffffffffffffffffffffffffffffffff160217905550808273ffffffffffffffffffffffffffffffffffffffff16611506836109d4565b73ffffffffffffffffffffffffffffffffffffffff167f8c5be1e5ebec7d5bd14f71427d1e84f3dd0314c0f7b2291e5b200ac8c7c3b92560405160405180910390a45050565b60006115578261141f565b611596576040517f08c379a000000000000000000000000000000000000000000000000000000000815260040161158d90613661565b60405180910390fd5b60006115a1836109d4565b90508073ffffffffffffffffffffffffffffffffffffffff168473ffffffffffffffffffffffffffffffffffffffff16148061161057508373ffffffffffffffffffffffffffffffffffffffff166115f88461057b565b73ffffffffffffffffffffffffffffffffffffffff16145b806116215750611620818561127a565b5b91505092915050565b8273ffffffffffffffffffffffffffffffffffffffff1661164a826109d4565b73ffffffffffffffffffffffffffffffffffffffff16146116a0576040517f08c379a000000000000000000000000000000000000000000000000000000000815260040161169790613781565b60405180910390fd5b600073ffffffffffffffffffffffffffffffffffffffff168273ffffffffffffffffffffffffffffffffffffffff161415611710576040517f08c379a000000000000000000000000000000000000000000000000000000000815260040161170790613621565b60405180910390fd5b61171b8383836120b7565b611726600082611493565b6001600360008573ffffffffffffffffffffffffffffffffffffffff1673ffffffffffffffffffffffffffffffffffffffff168152602001908152602001600020600082825461177691906139b6565b925050819055506001600360008473ffffffffffffffffffffffffffffffffffffffff1673ffffffffffffffffffffffffffffffffffffffff16815260200190815260200160002060008282546117cd91906138d5565b92505081905550816002600083815260200190815260200160002060006101000a81548173ffffffffffffffffffffffffffffffffffffffff021916908373ffffffffffffffffffffffffffffffffffffffff160217905550808273ffffffffffffffffffffffffffffffffffffffff168473ffffffffffffffffffffffffffffffffffffffff167fddf252ad1be2c89b69c2b068fc378daa952ba7f163c4a11628f55a4df523b3ef60405160405180910390a4505050565b606060008214156118ce576040518060400160405280600181526020017f30000000000000000000000000000000000000000000000000000000000000008152509050611a2e565b600082905060005b600082146119005780806118e990613ad2565b915050600a826118f9919061392b565b91506118d6565b60008167ffffffffffffffff811115611942577f4e487b7100000000000000000000000000000000000000000000000000000000600052604160045260246000fd5b6040519080825280601f01601f1916602001820160405280156119745781602001600182028036833780820191505090505b5090505b60008514611a275760018261198d91906139b6565b9150600a8561199c9190613b1b565b60306119a891906138d5565b60f81b8183815181106119e4577f4e487b7100000000000000000000000000000000000000000000000000000000600052603260045260246000fd5b60200101907effffffffffffffffffffffffffffffffffffffffffffffffffffffffffffff1916908160001a905350600a85611a20919061392b565b9450611978565b8093505050505b919050565b600081604051602001611a4691906132e0565b6040516020818303038152906040528051906020012060001c9050919050565b8173ffffffffffffffffffffffffffffffffffffffff168373ffffffffffffffffffffffffffffffffffffffff161415611ad5576040517f08c379a0000000000000000000000000000000000000000000000000000000008152600401611acc90613641565b60405180910390fd5b80600560008573ffffffffffffffffffffffffffffffffffffffff1673ffffffffffffffffffffffffffffffffffffffff16815260200190815260200160002060008473ffffffffffffffffffffffffffffffffffffffff1673ffffffffffffffffffffffffffffffffffffffff16815260200190815260200160002060006101000a81548160ff0219169083151502179055508173ffffffffffffffffffffffffffffffffffffffff168373ffffffffffffffffffffffffffffffffffffffff167f17307eab39ab6107e8899845ad3d59bd9653f200f220920489ca2b5937696c3183604051611bc69190613536565b60405180910390a3505050565b611bde84848461162a565b611bea848484846120bc565b611c29576040517f08c379a0000000000000000000000000000000000000000000000000000000008152600401611c20906135e1565b60405180910390fd5b50505050565b606060405180602001604052806000815250905090565b6060611c518261141f565b611c90576040517f08c379a0000000000000000000000000000000000000000000000000000000008152600401611c87906137a1565b60405180910390fd5b6000611c9a611c2f565b90506000815111611cba5760405180602001604052806000815250611ce5565b80611cc484611886565b604051602001611cd59291906132f7565b6040516020818303038152906040525b915050919050565b60606000825190506000811415611d165760405180602001604052806000815250915050611ea6565b60006003600283611d2791906138d5565b611d31919061392b565b6004611d3d919061395c565b90506000602082611d4e91906138d5565b67ffffffffffffffff811115611d8d577f4e487b7100000000000000000000000000000000000000000000000000000000600052604160045260246000fd5b6040519080825280601f01601f191660200182016040528015611dbf5781602001600182028036833780820191505090505b5090506000604051806060016040528060408152602001613c9b604091399050600181016020830160005b86811015611e635760038101905062ffffff818a015116603f8160121c168401518060081b905060ff603f83600c1c1686015116810190508060081b905060ff603f8360061c1686015116810190508060081b905060ff603f831686015116810190508060e01b90508084526004840193505050611dea565b506003860660018114611e7d5760028114611e8d57611e98565b613d3d60f01b6002830352611e98565b603d60f81b60018303525b508484525050819450505050505b919050565b611ec5828260405180602001604052806000815250612253565b5050565b611ed28261141f565b611f11576040517f08c379a0000000000000000000000000000000000000000000000000000000008152600401611f0890613701565b60405180910390fd5b80600660008481526020019081526020016000209080519060200190611f3892919061248f565b505050565b6001816000016000828254019250508190555050565b611fed838383604051602401611f6b939291906135a3565b6040516020818303038152906040527fe3849f79000000000000000000000000000000000000000000000000000000007bffffffffffffffffffffffffffffffffffffffffffffffffffffffff19166020820180517bffffffffffffffffffffffffffffffffffffffffffffffffffffffff838183161783525050505061208e565b505050565b61208a8282604051602401612008929190613573565b6040516020818303038152906040527f9710a9d0000000000000000000000000000000000000000000000000000000007bffffffffffffffffffffffffffffffffffffffffffffffffffffffff19166020820180517bffffffffffffffffffffffffffffffffffffffffffffffffffffffff838183161783525050505061208e565b5050565b60008151905060006a636f6e736f6c652e6c6f679050602083016000808483855afa5050505050565b505050565b60006120dd8473ffffffffffffffffffffffffffffffffffffffff166122ae565b15612246578373ffffffffffffffffffffffffffffffffffffffff1663150b7a0261210661148b565b8786866040518563ffffffff1660e01b815260040161212894939291906134c1565b602060405180830381600087803b15801561214257600080fd5b505af192505050801561217357506040513d601f19601f8201168201806040525081019061217091906127d3565b60015b6121f6573d80600081146121a3576040519150601f19603f3d011682016040523d82523d6000602084013e6121a8565b606091505b506000815114156121ee576040517f08c379a00000000000000000000000000000000000000000000000000000000081526004016121e5906135e1565b60405180910390fd5b805181602001fd5b63150b7a0260e01b7bffffffffffffffffffffffffffffffffffffffffffffffffffffffff1916817bffffffffffffffffffffffffffffffffffffffffffffffffffffffff19161491505061224b565b600190505b949350505050565b61225d83836122c1565b61226a60008484846120bc565b6122a9576040517f08c379a00000000000000000000000000000000000000000000000000000000081526004016122a0906135e1565b60405180910390fd5b505050565b600080823b905060008111915050919050565b600073ffffffffffffffffffffffffffffffffffffffff168273ffffffffffffffffffffffffffffffffffffffff161415612331576040517f08c379a000000000000000000000000000000000000000000000000000000000815260040161232890613721565b60405180910390fd5b61233a8161141f565b1561237a576040517f08c379a000000000000000000000000000000000000000000000000000000000815260040161237190613601565b60405180910390fd5b612386600083836120b7565b6001600360008473ffffffffffffffffffffffffffffffffffffffff1673ffffffffffffffffffffffffffffffffffffffff16815260200190815260200160002060008282546123d691906138d5565b92505081905550816002600083815260200190815260200160002060006101000a81548173ffffffffffffffffffffffffffffffffffffffff021916908373ffffffffffffffffffffffffffffffffffffffff160217905550808273ffffffffffffffffffffffffffffffffffffffff16600073ffffffffffffffffffffffffffffffffffffffff167fddf252ad1be2c89b69c2b068fc378daa952ba7f163c4a11628f55a4df523b3ef60405160405180910390a45050565b82805461249b90613aa0565b90600052602060002090601f0160209004810192826124bd5760008555612504565b82601f106124d657805160ff1916838001178555612504565b82800160010185558215612504579182015b828111156125035782518255916020019190600101906124e8565b5b5090506125119190612515565b5090565b5b8082111561252e576000816000905550600101612516565b5090565b60006125456125408461384d565b61381c565b90508281526020810184848401111561255d57600080fd5b612568848285613a5e565b509392505050565b60008135905061257f81613c19565b92915050565b60008135905061259481613c30565b92915050565b6000813590506125a981613c47565b92915050565b6000815190506125be81613c47565b92915050565b600082601f8301126125d557600080fd5b81356125e5848260208601612532565b91505092915050565b6000813590506125fd81613c5e565b92915050565b60006020828403121561261557600080fd5b600061262384828501612570565b91505092915050565b6000806040838503121561263f57600080fd5b600061264d85828601612570565b925050602061265e85828601612570565b9150509250929050565b60008060006060848603121561267d57600080fd5b600061268b86828701612570565b935050602061269c86828701612570565b92505060406126ad868287016125ee565b9150509250925092565b600080600080608085870312156126cd57600080fd5b60006126db87828801612570565b94505060206126ec87828801612570565b93505060406126fd878288016125ee565b925050606085013567ffffffffffffffff81111561271a57600080fd5b612726878288016125c4565b91505092959194509250565b6000806040838503121561274557600080fd5b600061275385828601612570565b925050602061276485828601612585565b9150509250929050565b6000806040838503121561278157600080fd5b600061278f85828601612570565b92505060206127a0858286016125ee565b9150509250929050565b6000602082840312156127bc57600080fd5b60006127ca8482850161259a565b91505092915050565b6000602082840312156127e557600080fd5b60006127f3848285016125af565b91505092915050565b60006020828403121561280e57600080fd5b600061281c848285016125ee565b91505092915050565b61282e816139ea565b82525050565b61283d816139fc565b82525050565b600061284e82613892565b61285881856138a8565b9350612868818560208601613a6d565b61287181613c08565b840191505092915050565b60006128878261389d565b61289181856138b9565b93506128a1818560208601613a6d565b6128aa81613c08565b840191505092915050565b60006128c08261389d565b6128ca81856138ca565b93506128da818560208601613a6d565b80840191505092915050565b600081546128f381613aa0565b6128fd81866138ca565b9450600182166000811461291857600181146129295761295c565b60ff1983168652818601935061295c565b6129328561387d565b60005b8381101561295457815481890152600182019150602081019050612935565b838801955050505b50505092915050565b60006129726025836138ca565b91507f68747470733a2f2f6e6674707265766965772e30786465762e636f6465732f3f60008301527f636f64653d0000000000000000000000000000000000000000000000000000006020830152602582019050919050565b60006129d86032836138b9565b91507f4552433732313a207472616e7366657220746f206e6f6e20455243373231526560008301527f63656976657220696d706c656d656e74657200000000000000000000000000006020830152604082019050919050565b6000612a3e601c836138b9565b91507f4552433732313a20746f6b656e20616c7265616479206d696e746564000000006000830152602082019050919050565b6000612a7e600a836138ca565b91507f54484952445f574f5244000000000000000000000000000000000000000000006000830152600a82019050919050565b6000612abe6024836138b9565b91507f4552433732313a207472616e7366657220746f20746865207a65726f2061646460008301527f72657373000000000000000000000000000000000000000000000000000000006020830152604082019050919050565b6000612b246019836138b9565b91507f4552433732313a20617070726f766520746f2063616c6c6572000000000000006000830152602082019050919050565b6000612b646063836138ca565b91507f222c20226465736372697074696f6e223a20224120686967686c79206163636c60008301527f61696d656420636f6c6c656374696f6e206f6620737175617265732e222c202260208301527f696d616765223a2022646174613a696d6167652f7376672b786d6c3b6261736560408301527f36342c00000000000000000000000000000000000000000000000000000000006060830152606382019050919050565b6000612c16600b836138ca565b91507f5345434f4e445f574f52440000000000000000000000000000000000000000006000830152600b82019050919050565b6000612c56602c836138b9565b91507f4552433732313a206f70657261746f7220717565727920666f72206e6f6e657860008301527f697374656e7420746f6b656e00000000000000000000000000000000000000006020830152604082019050919050565b6000612cbc6028836138b9565b91507f536f7272792120436f6c6c656374696f6e206c696d6974656420746f2035302060008301527f4e4654732e203a280000000000000000000000000000000000000000000000006020830152604082019050919050565b6000612d22600d836138ca565b91507f3c2f746578743e3c2f7376673e000000000000000000000000000000000000006000830152600d82019050919050565b6000612d626038836138b9565b91507f4552433732313a20617070726f76652063616c6c6572206973206e6f74206f7760008301527f6e6572206e6f7220617070726f76656420666f7220616c6c00000000000000006020830152604082019050919050565b6000612dc8602a836138b9565b91507f4552433732313a2062616c616e636520717565727920666f7220746865207a6560008301527f726f2061646472657373000000000000000000000000000000000000000000006020830152604082019050919050565b6000612e2e6029836138b9565b91507f4552433732313a206f776e657220717565727920666f72206e6f6e657869737460008301527f656e7420746f6b656e00000000000000000000000000000000000000000000006020830152604082019050919050565b6000612e94602e836138b9565b91507f45524337323155524953746f726167653a2055524920736574206f66206e6f6e60008301527f6578697374656e7420746f6b656e0000000000000000000000000000000000006020830152604082019050919050565b6000612efa6002836138ca565b91507f227d0000000000000000000000000000000000000000000000000000000000006000830152600282019050919050565b6000612f3a6020836138b9565b91507f4552433732313a206d696e7420746f20746865207a65726f20616464726573736000830152602082019050919050565b6000612f7a6031836138b9565b91507f45524337323155524953746f726167653a2055524920717565727920666f722060008301527f6e6f6e6578697374656e7420746f6b656e0000000000000000000000000000006020830152604082019050919050565b6000612fe0602c836138b9565b91507f4552433732313a20617070726f76656420717565727920666f72206e6f6e657860008301527f697374656e7420746f6b656e00000000000000000000000000000000000000006020830152604082019050919050565b60006130466029836138b9565b91507f4552433732313a207472616e73666572206f6620746f6b656e2074686174206960008301527f73206e6f74206f776e00000000000000000000000000000000000000000000006020830152604082019050919050565b60006130ac602f836138b9565b91507f4552433732314d657461646174613a2055524920717565727920666f72206e6f60008301527f6e6578697374656e7420746f6b656e00000000000000000000000000000000006020830152604082019050919050565b6000613112600a836138ca565b91507f7b226e616d65223a2022000000000000000000000000000000000000000000006000830152600a82019050919050565b60006131526021836138b9565b91507f4552433732313a20617070726f76616c20746f2063757272656e74206f776e6560008301527f72000000000000000000000000000000000000000000000000000000000000006020830152604082019050919050565b60006131b8600a836138ca565b91507f46495253545f574f5244000000000000000000000000000000000000000000006000830152600a82019050919050565b60006131f8601d836138ca565b91507f646174613a6170706c69636174696f6e2f6a736f6e3b6261736536342c0000006000830152601d82019050919050565b60006132386031836138b9565b91507f4552433732313a207472616e736665722063616c6c6572206973206e6f74206f60008301527f776e6572206e6f7220617070726f7665640000000000000000000000000000006020830152604082019050919050565b600061329e6005836138ca565b91507f434f4c4f520000000000000000000000000000000000000000000000000000006000830152600582019050919050565b6132da81613a54565b82525050565b60006132ec82846128b5565b915081905092915050565b600061330382856128b5565b915061330f82846128b5565b91508190509392505050565b600061332782866128b5565b915061333382856128b5565b915061333f82846128b5565b9150819050949350505050565b600061335882876128e6565b915061336482866128b5565b915061337082856128e6565b915061337c82846128b5565b915061338782612d15565b915081905095945050505050565b60006133a082612965565b91506133ac82846128b5565b915081905092915050565b60006133c282612a71565b91506133ce82846128b5565b915081905092915050565b60006133e482612c09565b91506133f082846128b5565b915081905092915050565b600061340682613105565b915061341282856128b5565b915061341d82612b57565b915061342982846128b5565b915061343482612eed565b91508190509392505050565b600061344b826131ab565b915061345782846128b5565b915081905092915050565b600061346d826131eb565b915061347982846128b5565b915081905092915050565b600061348f82613291565b915061349b82846128b5565b915081905092915050565b60006020820190506134bb6000830184612825565b92915050565b60006080820190506134d66000830187612825565b6134e36020830186612825565b6134f060408301856132d1565b81810360608301526135028184612843565b905095945050505050565b60006040820190506135226000830185612825565b61352f60208301846132d1565b9392505050565b600060208201905061354b6000830184612834565b92915050565b6000602082019050818103600083015261356b818461287c565b905092915050565b6000604082019050818103600083015261358d818561287c565b905061359c60208301846132d1565b9392505050565b600060608201905081810360008301526135bd818661287c565b90506135cc60208301856132d1565b6135d96040830184612825565b949350505050565b600060208201905081810360008301526135fa816129cb565b9050919050565b6000602082019050818103600083015261361a81612a31565b9050919050565b6000602082019050818103600083015261363a81612ab1565b9050919050565b6000602082019050818103600083015261365a81612b17565b9050919050565b6000602082019050818103600083015261367a81612c49565b9050919050565b6000602082019050818103600083015261369a81612caf565b9050919050565b600060208201905081810360008301526136ba81612d55565b9050919050565b600060208201905081810360008301526136da81612dbb565b9050919050565b600060208201905081810360008301526136fa81612e21565b9050919050565b6000602082019050818103600083015261371a81612e87565b9050919050565b6000602082019050818103600083015261373a81612f2d565b9050919050565b6000602082019050818103600083015261375a81612f6d565b9050919050565b6000602082019050818103600083015261377a81612fd3565b9050919050565b6000602082019050818103600083015261379a81613039565b9050919050565b600060208201905081810360008301526137ba8161309f565b9050919050565b600060208201905081810360008301526137da81613145565b9050919050565b600060208201905081810360008301526137fa8161322b565b9050919050565b600060208201905061381660008301846132d1565b92915050565b6000604051905081810181811067ffffffffffffffff8211171561384357613842613bd9565b5b8060405250919050565b600067ffffffffffffffff82111561386857613867613bd9565b5b601f19601f8301169050602081019050919050565b60008190508160005260206000209050919050565b600081519050919050565b600081519050919050565b600082825260208201905092915050565b600082825260208201905092915050565b600081905092915050565b60006138e082613a54565b91506138eb83613a54565b9250827fffffffffffffffffffffffffffffffffffffffffffffffffffffffffffffffff038211156139205761391f613b4c565b5b828201905092915050565b600061393682613a54565b915061394183613a54565b92508261395157613950613b7b565b5b828204905092915050565b600061396782613a54565b915061397283613a54565b9250817fffffffffffffffffffffffffffffffffffffffffffffffffffffffffffffffff04831182151516156139ab576139aa613b4c565b5b828202905092915050565b60006139c182613a54565b91506139cc83613a54565b9250828210156139df576139de613b4c565b5b828203905092915050565b60006139f582613a34565b9050919050565b60008115159050919050565b60007fffffffff0000000000000000000000000000000000000000000000000000000082169050919050565b600073ffffffffffffffffffffffffffffffffffffffff82169050919050565b6000819050919050565b82818337600083830152505050565b60005b83811015613a8b578082015181840152602081019050613a70565b83811115613a9a576000848401525b50505050565b60006002820490506001821680613ab857607f821691505b60208210811415613acc57613acb613baa565b5b50919050565b6000613add82613a54565b91507fffffffffffffffffffffffffffffffffffffffffffffffffffffffffffffffff821415613b1057613b0f613b4c565b5b600182019050919050565b6000613b2682613a54565b9150613b3183613a54565b925082613b4157613b40613b7b565b5b828206905092915050565b7f4e487b7100000000000000000000000000000000000000000000000000000000600052601160045260246000fd5b7f4e487b7100000000000000000000000000000000000000000000000000000000600052601260045260246000fd5b7f4e487b7100000000000000000000000000000000000000000000000000000000600052602260045260246000fd5b7f4e487b7100000000000000000000000000000000000000000000000000000000600052604160045260246000fd5b6000601f19601f8301169050919050565b613c22816139ea565b8114613c2d57600080fd5b50565b613c39816139fc565b8114613c4457600080fd5b50565b613c5081613a08565b8114613c5b57600080fd5b50565b613c6781613a54565b8114613c7257600080fd5b5056fe416e204e465420772f20494420257320686173206265656e206d696e74656420746f2025734142434445464748494a4b4c4d4e4f505152535455565758595a6162636465666768696a6b6c6d6e6f707172737475767778797a303132333435363738392b2fa2646970667358221220b5430f5d2bd5896678767ba5197f225a7b4dbb22ed5b8241592a4622e984959764736f6c634300080000333c73766720786d6c6e733d27687474703a2f2f7777772e77332e6f72672f323030302f73766727207072657365727665417370656374526174696f3d27784d696e594d696e206d656574272076696577426f783d273020302033353020333530273e3c7374796c653e2e62617365207b2066696c6c3a2077686974653b20666f6e742d66616d696c793a2073657269663b20666f6e742d73697a653a20323470783b207d3c2f7374796c653e3c726563742077696474683d273130302527206865696768743d2731303025272066696c6c3d27272f3e3c7465787420783d273530252720793d273530252720636c6173733d27626173652720646f6d696e616e742d626173656c696e653d276d6964646c652720746578742d616e63686f723d276d6964646c65273e",
  "linkReferences": {},
  "deployedLinkReferences": {}
}